:100000000C9435000C945D000C945D000C945D0024
:100010000C945D000C945D000C945D000C945D00EC
:100020000C945D000C945D000C945D000C945D00DC
:100030000C945D000C945D000C945D000C945D00CC
:100040000C94F4010C945D000C9464020C943E0238
:100050000C945D000C945D000C945D000C945D00AC
:100060000C945D000C945D006A0411241FBECFEF58
:10007000D8E0DEBFCDBF22E0A0E9B1E001C01D9213
:10008000A034B207E1F711E0A0E0B1E0E0E6FEE065
:1000900002C005900D92A039B107D9F710E0C5E371
:1000A000D0E004C02197FE010E942C05C433D10783
:1000B000C9F70E9496020C942E070C940000CF9270
:1000C000DF92EF92FF920F931F93CF93DF936C0118
:1000D0007A018B01C0E0D0E0CE15DF0581F0D801B8
:1000E0006D918D01D601ED91FC910190F081E02D93
:1000F000C6010995892B11F02196EECF7E01C7012B
:10010000DF91CF911F910F91FF90EF90DF90CF90F3
:100110000895089580E090E00895FC01538D448D8A
:10012000252F30E0842F90E0821B930B541710F0A2
:10013000CF96089501970895FC01918D828D9817AF
:1001400061F0828DDF01A80FB11D5D968C91928DBB
:100150009F5F9F73928F90E008958FEF9FEF0895B8
:10016000FC01918D828D981731F0828DE80FF11D81
:10017000858D90E008958FEF9FEF0895FC01918D9C
:10018000228D892F90E0805C9F4F821B91098F7395
:10019000992708958FE991E00E94BE0021E0892B04
:1001A00009F420E0822F0895FC01848DDF01A80F5F
:1001B000B11DA35ABF4F2C91848D90E001968F738F
:1001C0009927848FA689B7892C93A089B1898C91AE
:1001D000837080648C93938D848D981306C00288FD
:1001E000F389E02D80818F7D80830895EF92FF92C7
:1001F0000F931F93CF93DF93EC0181E0888F9B8D4A
:100200008C8D981305C0E889F989808185FD26C009
:10021000F62E0B8D10E00F5F1F4F0F731127E02E8E
:100220008C8DE8120CC00FB607FCFACFE889F9896B
:10023000808185FFF5CFCE010E94D400F1CF8B8D58
:10024000FE01E80FF11DE35AFF4FF0829FB7F894CB
:100250000B8FEA89FB89808180620AC09FB7F8947E
:10026000EE89FF896083E889F989808183708064E1
:1002700080839FBF81E090E0DF91CF911F910F912C
:10028000FF90EF900895CF93DF93EC01888D882342
:10029000C9F0EA89FB89808185FD05C0A889B989F3
:1002A0008C9186FD0FC00FB607FCF5CF808185FFCE
:1002B000F2CFA889B9898C9185FFEDCFCE010E943C
:1002C000D400E7CFDF91CF91089580E090E0892BB3
:1002D00029F00E94CA0081110C9400000895009733
:1002E00069F0FC0101900020E9F73197AF01481B4C
:1002F000590BBC018FE991E00C945F0080E090E025
:100300000895CF93DF930E946F01EC0188E191E0A3
:100310000E946F018C0F9D1FDF91CF910895CF93A5
:10032000DF93EC0188819981009711F00E94CA0542
:10033000198218821D821C821B821A82DF91CF9142
:1003400008950E9419070F931F93CF93DF93EC0139
:1003500088819981009729F02A813B8126173707E8
:1003600088F48B016F5F7F4F0E945306009761F006
:10037000998388831B830A832C813D81232B11F46D
:10038000FC01108281E001C080E0DF91CF911F91DC
:100390000F910895EF92FF920F931F93CF93DF93E6
:1003A000EC0186179707C1F0FB010081118101154F
:1003B000110539F0E480F580B7010E94A301811195
:1003C00004C0CE010E948F0107C0FD82EC82B801FB
:1003D000888199810E942707CE01DF91CF911F91DB
:1003E0000F91FF90EF9008951F920F920FB60F920A
:1003F00011242F933F938F939F93AF93BF9380913B
:100400009B0190919C01A0919D01B0919E01309122
:100410009A0123E0230F2D3720F40196A11DB11D71
:1004200005C026E8230F0296A11DB11D20939A0155
:1004300080939B0190939C01A0939D01B0939E019A
:100440008091960190919701A0919801B0919901A6
:100450000196A11DB11D8093960190939701A093E1
:100460009801B0939901BF91AF919F918F913F9166
:100470002F910F900FBE0F901F9018951F920F9203
:100480000FB60F9211242F933F934F935F936F9367
:100490007F938F939F93AF93BF93EF93FF938FE9D6
:1004A00091E00E94D400FF91EF91BF91AF919F9195
:1004B0008F917F916F915F914F913F912F910F900D
:1004C0000FBE0F901F9018951F920F920FB60F92AC
:1004D00011242F938F939F93EF93FF93E091AF019C
:1004E000F091B0018081E091B501F091B60182FDFB
:1004F00012C090818091B8018F5F8F732091B901F4
:10050000821751F0E091B801F0E0E156FE4F958F6F
:100510008093B80101C08081FF91EF919F918F91ED
:100520002F910F900FBE0F901F901895CF93DF93D0
:10053000CDB7DEB7A9970FB6F894DEBF0FBECDBF1B
:10054000789484B5826084BD84B5816084BD85B5AE
:10055000826085BD85B5816085BD80916E008160BA
:1005600080936E0010928100809181008260809360
:100570008100809181008160809381008091800062
:100580008160809380008091B10084608093B1008D
:100590008091B00081608093B00080917A00846087
:1005A00080937A0080917A00826080937A008091B3
:1005B0007A00816080937A0080917A0080688093CD
:1005C0007A001092C100E091AF01F091B00182E099
:1005D0008083E091AB01F091AC011082E091AD011C
:1005E000F091AE0180E180831092B701E091B301F8
:1005F000F091B40186E08083E091B101F091B20105
:10060000808180618083E091B101F091B2018081AD
:1006100088608083E091B101F091B20180818068AF
:100620008083E091B101F091B20180818F7D808360
:100630008BE191E00E948101109291011092900152
:100640008EE291E00E94810184E0282E312CAA24C0
:10065000A394B12C2AE0422E512C612C712C8FE9ED
:1006600091E00E94BE00181619060CF089C08FE9AF
:1006700091E00E94BE00019739F48FE991E00E9459
:100680009C00809395017CC08FE991E00E94BE00A0
:100690004C011BA21AA21DA21CA21FA21EA260E056
:1006A00070E0CE0182960E94A301811107C0CE01A5
:1006B00082960E948F01E12CF12C43C01FA21EA242
:1006C0006AE171E08AA19BA10E942707F4CF8FE91C
:1006D00091E00E949C00182F1A8219821C821B82B2
:1006E0001E821D82BE016E5D7F4FCE0101960E946B
:1006F000CA0118A719A60D811E810F5F1F4FB801EF
:10070000CE0101960E94A3018823F9F029813A8144
:100710008D819E81BE01685D7F4F820F931F0E9475
:1007200027071E830D83BE016F5F7F4FCE01829628
:100730000E94CA0189819A810E94CA058FEFE81A36
:10074000F80AE814F9041CF205C0CE0101960E94D3
:100750008F01E9CF0AA11BA10115110521F0C801E4
:100760000E94970403C060E070E0CB017093940195
:100770006093930181E080939201C8010E94CA05B1
:1007800080919001909191018230910509F481C08E
:100790002CF4009759F0019701F199C0833091052D
:1007A00009F486C0049709F48EC091C08091950128
:1007B000873539F4B0929101A09290018EE391E0D7
:1007C00074C0843409F083C0E2E0F0E0F09391015A
:1007D000E09390018FE491E068C0809192018823BA
:1007E00009F44CC082E691E00E946F0120919301D0
:1007F000309194016901330FEE08FF08F7FE20C025
:100800006DE28FE991E00E94F60022273327A901CB
:100810002C193D094E095F0919A28E010F5D1F4F6A
:10082000CA01B901A30192010E940A05605DF801A5
:1008300062938F01211531054105510589F715C0D6
:10084000A701960119A28E010F5D1F4FCA01B901C0
:10085000A30192010E940A05605DF80162938F0175
:10086000211531054105510589F7C8010E946F0125
:1008700088E191E00E946F011092920180919501B0
:10088000813529F510929101109290018EE291E04C
:100890000CC0809195018335D1F483E090E0909372
:1008A00091018093900182E791E00E9481010FC045
:1008B00080919501863459F43092910120929001F3
:1008C00081E891E0F2CF809195018235D9F20E94C2
:1008D0006501C5CEEFE9F1E01382128288EE93E064
:1008E000A0E0B0E084839583A683B7838AE091E09B
:1008F0009183808385EC90E09587848784EC90E0F9
:100900009787868780EC90E0918B808B81EC90E0DC
:10091000938B828B82EC90E0958B848B86EC90E0BD
:10092000978B868B118E128E138E148E08951F93C3
:10093000FC0199278827BC01E89411911032E9F352
:10094000193010F01E30C8F31B3251F01D3249F43B
:10095000689406C00E94BE04610F711D811D911D27
:10096000119110531A30B0F33EF490958095709524
:1009700061957F4F8F4F9F4F1F910895592F482F9B
:10098000372F262F660F771F881F991F660F771F37
:10099000881F991F620F731F841F951F660F771F93
:1009A000881F991F08952F923F924F925F926F92E6
:1009B0007F928F929F92AF92BF92CF92DF92EF92EF
:1009C000FF920F931F93CF93DF93CDB7DEB7CA1B70
:1009D000DB0B0FB6F894DEBF0FBECDBF09942A889B
:1009E000398848885F846E847D848C849B84AA8443
:1009F000B984C884DF80EE80FD800C811B81AA81D0
:100A0000B981CE0FD11D0FB6F894DEBF0FBECDBF9A
:100A1000ED010895A1E21A2EAA1BBB1BFD010DC01A
:100A2000AA1FBB1FEE1FFF1FA217B307E407F5079E
:100A300020F0A21BB30BE40BF50B661F771F881F7A
:100A4000991F1A9469F760957095809590959B0110
:100A5000AC01BD01CF010895EE0FFF1F0590F49189
:100A6000E02D09940F931F93CF93DF93823091056C
:100A700010F482E090E0E0913E02F0913F0220E02D
:100A800030E0A0E0B0E0309719F14081518102815F
:100A9000138148175907C8F08417950769F4109710
:100AA00031F012960C93129713961C9327C0009363
:100AB0003E0210933F0222C02115310519F0421762
:100AC000530718F49A01BD01EF01DF01F801DBCFF4
:100AD00021153105F9F0281B390B2430310580F43C
:100AE0008A819B816115710521F0FB0193838283CB
:100AF00004C090933F0280933E02FE01329644C0B0
:100B0000FE01E20FF31F8193919322503109398343
:100B100028833AC020913C0230913D02232B41F4BE
:100B2000209102013091030130933D0220933C0259
:100B300020910001309101012115310541F42DB7BB
:100B40003EB74091040150910501241B350BE09103
:100B50003C02F0913D02E217F307A0F42E1B3F0B7D
:100B60002817390778F0AC014E5F5F4F241735071F
:100B700048F04E0F5F1F50933D0240933C0281931B
:100B8000919302C0E0E0F0E0CF01DF91CF911F919F
:100B90000F910895CF93DF93009709F481C0FC0172
:100BA000329713821282A0913E02B0913F021097B9
:100BB00081F420813181820F931F20913C0230917A
:100BC0003D022817390751F5F0933D02E0933C02AE
:100BD00067C0ED0120E030E0CE17DF0740F44A8126
:100BE0005B819E0141155105F1F0EA01F5CFD383F8
:100BF000C28340815181840F951FC817D90759F4CA
:100C000088819981840F951F0296918380838A81C0
:100C10009B81938382832115310529F4F0933F0250
:100C2000E0933E023DC0E901FB83EA83499159917B
:100C3000C40FD51FEC17FD0761F480819181840FEB
:100C4000951F0296E90199838883828193819B8312
:100C50008A83E0E0F0E012968D919C9113970097C3
:100C600019F0FD01DC01F7CF8D919C9111979D0149
:100C70002E5F3F4F820F931F20913C0230913D0227
:100C80002817390769F4309729F410923F0210921F
:100C90003E0202C013821282B0933D02A0933C0236
:100CA000DF91CF910895A0E0B0E0E9E5F6E00C9483
:100CB000D704EC01009721F4CB010E943205B4C0A7
:100CC000FC01E60FF71F9C0122503109E217F307E0
:100CD00008F4A8C0D9010D911C91119706171707A8
:100CE000B0F00530110508F49BC0C80104978617C1
:100CF000970708F495C002501109061B170B0193C2
:100D000011936D937C93CF010E94CA0589C05B014A
:100D1000A01AB10A4C01800E911EA0913E02B09122
:100D20003F02612C712CE12CF12C109709F446C084
:100D30008D919C911197A815B905B1F56C0142E010
:100D4000C40ED11CCA14DB0478F14C018A189B082C
:100D5000640142E0C40ED11C1296BC901297139607
:100D6000AC91B5E0CB16D10440F0B282A38391825E
:100D70008082D9016D937C9309C00E5F1F4F800F55
:100D8000911FF90191838083EB2DFA2FE114F10477
:100D900031F0D7011396FC93EE93129741C0F09374
:100DA0003F02E0933E023CC06816790608F43C011D
:100DB0007D0112960D90BC91A02DB7CF80913C0281
:100DC00090913D0288169906E1F466167706C8F4FC
:100DD0008091000190910101009741F48DB79EB779
:100DE0004091040150910501841B950BE817F90708
:100DF000C8F4F0933D02E0933C02F90171836083F3
:100E00000FC0CB010E9432057C01009759F0A80168
:100E1000BE010E941E07CE010E94CA05C70104C080
:100E2000CE0102C080E090E0CDB7DEB7EEE00C94DA
:100E3000F30481E090E0F8940C942E07FB01DC01B0
:100E400002C001900D9241505040D8F70895FB0127
:100E5000DC0101900D920020E1F70895F894FFCF96
:100E600000004002200000000000F6005F008D003E
:100E70004301BE009C00B0000D0A005379737465F5
:100E80006D20696E697469616C697A656400537478
:100E90006174653A3D205354414E444259005374A5
:100EA0006174653A3D205345544752414D530053B8
:100EB000746174653A3D2044495350454E53494E40
:100EC00047005765696768742073657420746F3DC7
:100ED000200053746174653A3D2053455256454491
:100EE0000053746174653A3D20464C5553480000E8
:00000001FF
