:100000000C945D000C9485000C9485000C94850084
:100010000C9485000C9485000C9485000C9485004C
:100020000C9485000C9485000C9485000C9474034A
:100030000C9485000C9485000C9485000C9485002C
:100040000C949E020C9485000C9425030C94FF02E2
:100050000C9485000C9485000C9485000C9485000C
:100060000C94C2050C9485000000000024002700B9
:100070002A0000000000250028002B0004040404CE
:100080000404040402020202020203030303030342
:10009000010204081020408001020408102001021F
:1000A00004081020000000080002010000030407FB
:1000B0000000000000000000330B11241FBECFEF32
:1000C000D8E0DEBFCDBF12E0A0E0B1E0E8E1FEE1A4
:1000D00002C005900D92A436B107D9F724E0A4E63A
:1000E000B2E001C01D92AD32B207E1F710E0CDE5FC
:1000F000D0E004C02197FE010E94080DCC35D10745
:10010000C9F70E94B3070C940A0F0C940000CF9219
:10011000DF92EF92FF920F931F93CF93DF936C01C7
:100120007A018B01C0E0D0E0CE15DF0581F0D80167
:100130006D918D01D601ED91FC910190F081E02D42
:10014000C6010995892B11F02196EECF7E01C701DA
:10015000DF91CF911F910F91FF90EF90DF90CF90A3
:100160000895FC01538D448D252F30E0842F90E0BD
:10017000821B930B541710F0CF96089501970895A2
:10018000FC01918D828D981761F0828DDF01A80F9F
:10019000B11D5D968C91928D9F5F9F73928F90E0C1
:1001A00008958FEF9FEF0895FC01918D828D981730
:1001B00031F0828DE80FF11D858D90E008958FEF6D
:1001C0009FEF0895FC01918D228D892F90E0805C36
:1001D0009F4F821B91098F73992708958FEC92E0AE
:1001E0000E94E20021E0892B09F420E0822F08958B
:1001F000FC01848DDF01A80FB11DA35ABF4F2C91C4
:10020000848D90E001968F739927848FA689B78992
:100210002C93A089B1898C91837080648C93938D89
:10022000848D981306C00288F389E02D80818F7D2C
:1002300080830895EF92FF920F931F93CF93DF93E4
:10024000EC0181E0888F9B8D8C8D981305C0E88927
:10025000F989808185FD26C0F62E0B8D10E00F5F99
:100260001F4F0F731127E02E8C8DE8120CC00FB6B4
:1002700007FCFACFE889F989808185FFF5CFCE01A7
:100280000E94F800F1CF8B8DFE01E80FF11DE35ABB
:10029000FF4FF0829FB7F8940B8FEA89FB8980812A
:1002A00080620AC09FB7F894EE89FF896083E8896D
:1002B000F98980818370806480839FBF81E090E0B2
:1002C000DF91CF911F910F91FF90EF900895CF9301
:1002D000DF93EC01888D8823C9F0EA89FB8980814E
:1002E00085FD05C0A889B9898C9186FD0FC00FB620
:1002F00007FCF5CF808185FFF2CFA889B9898C9161
:1003000085FFEDCFCE010E94F800E7CFDF91CF91BE
:10031000089580E090E0892B29F00E94EE00811181
:100320000C9400000895089580E090E00895CF9324
:10033000DF93EC0188819981009711F00E94A60D4E
:10034000198218821D821C821B821A82DF91CF9132
:1003500008950E94F50E0F931F93CF93DF93EC0146
:1003600088819981009729F02A813B8126173707D8
:1003700088F48B016F5F7F4F0E942F0E009761F012
:10038000998388831B830A832C813D81232B11F45D
:10039000FC01108281E001C080E0DF91CF911F91CC
:1003A0000F910895EF92FF920F931F93CF93DF93D6
:1003B000EC0186179707C1F0FB010081118101153F
:1003C000110539F0E480F580B7010E94AB0181117D
:1003D00004C0CE010E94970107C0FD82EC82B801E3
:1003E000888199810E94030FCE01DF91CF911F91E7
:1003F0000F91FF90EF900895CF93FC01C48121E00D
:1004000020939302C0936502109297021092960275
:100410008385682B83EC92E00E94C204909196023F
:10042000913208F045C080919D028111FCCF82E09D
:1004300080939D0281E080939F028FEF80939C02C6
:100440001092C1029093C002A3E7B2E0E0EAF2E0AA
:1004500080E0981721F02D9121938F5FFACF1092B1
:10046000C2028091C202CC0FC82BC093C2028091FD
:100470009E02813061F410929E028091C2028093AC
:10048000BB008091BC0083FDF8CF85EC01C085EEF8
:100490008093BC0080919D028230E1F380919C02A8
:1004A0008F3F31F080919C02803211F080919C024C
:1004B000109297021092960210929302CF91089593
:1004C0000F931F93CF938C01C62F0E94FC016C2FBA
:1004D0006460C8010E94FC016C2F6B7FC8010E9400
:1004E000FC0183EC90E00197F1F7CF911F910F9100
:1004F00008953FB7F89480916F0290917002A09197
:100500007102B091720226B5A89B05C02F3F19F069
:100510000196A11DB11D3FBFBA2FA92F982F882783
:10052000820F911DA11DB11DBC01CD0142E0660FDE
:10053000771F881F991F4A95D1F708951F920F9230
:100540000FB60F9211242F933F938F939F93AF93E6
:10055000BF9380916B0290916C02A0916D02B0915B
:100560006E0230916A0223E0230F2D3720F40196AA
:10057000A11DB11D05C026E8230F0296A11DB11DC6
:1005800020936A0280936B0290936C02A0936D0299
:10059000B0936E0280916F0290917002A0917102EF
:1005A000B09172020196A11DB11D80936F029093CC
:1005B0007002A0937102B0937202BF91AF919F91AC
:1005C0008F913F912F910F900FBE0F901F90189514
:1005D0006115710579F0FB0101900020E9F7319771
:1005E000AF01461B570BDC01ED91FC910280F381BA
:1005F000E02D099480E090E008950C94E8021F92A9
:100600000F920FB60F9211242F933F934F935F9346
:100610006F937F938F939F93AF93BF93EF93FF93CA
:100620008FEC92E00E94F800FF91EF91BF91AF91A3
:100630009F918F917F916F915F914F913F912F91FA
:100640000F900FBE0F901F9018951F920F920FB62C
:100650000F9211242F938F939F93EF93FF93E09129
:10066000DF02F091E0028081E091E502F091E60284
:1006700082FD12C090818091E8028F5F8F7320917C
:10068000E902821751F0E091E802F0E0E153FD4FFA
:10069000958F8093E80201C08081FF91EF919F9137
:1006A0008F912F910F900FBE0F901F9018950F9361
:1006B0001F93CF93DF938C01C62FD42F607F642BC1
:1006C0000E94600280E1C89FB00111246D2BC80117
:1006D000DF91CF911F910F910C94600241E00E9435
:1006E000570381E090E008951F920F920FB60F928A
:1006F00011242F933F934F935F936F937F938F9327
:100700009F93AF93BF93EF93FF938091640287FF12
:1007100005C010928500109284001BC020916402D5
:10072000022E000C330B8091900390E028173907BC
:1007300084F480916402082E000C990BFC01EE0FEA
:10074000FF1F8E0F9F1FFC01E459FC4F808186FD27
:1007500015C0809164028F5F8093640220916402CF
:10076000022E000C330B8091900390E0281739077C
:10077000C4F4809164028C3064F113C080916402EF
:10078000082E000C990BFC01EE0FFF1F8E0F9F1F10
:10079000FC01E459FC4F808160E08F730E94F006F9
:1007A000D8CF8091840090918500049680349C4934
:1007B00018F480E49CE905C0809184009091850044
:1007C000049690938900809388008FEF8093640251
:1007D0003BC0209184003091850080916402082EF6
:1007E000000C990BFC01EE0FFF1F8E0F9F1FFC01E9
:1007F000E459FC4F81819281820F931F909389006D
:100800008093880080916402082E000C990BFC01F3
:10081000EE0FFF1F8E0F9F1FFC01E459FC4F8081DC
:1008200086FF12C080916402082E000C990BFC0117
:10083000EE0FFF1F8E0F9F1FFC01E459FC4F8081BC
:1008400061E08F730E94F006FF91EF91BF91AF912D
:100850009F918F917F916F915F914F913F912F91D8
:100860000F900FBE0F901F90189585ED8093BC00E0
:100870008091BC0084FDFCCF10929D0208954091B0
:10088000E403262F30E0240F311D21323105DCF442
:1008900020919D022430C9F4FC0180E090E086178D
:1008A00058F43091E4032191DC01AC53BC4FA30F09
:1008B000B11D2C930196F3CF8091E403680F6093F0
:1008C000E40380E0089581E0089582E008950895AA
:1008D00008950895E091950280919402E81730F40C
:1008E000F0E0EC55FC4F808190E008958FEF9FEF92
:1008F00008959091950280919402981750F4E92FF1
:10090000F0E0EC55FC4F208130E09F5F9093950222
:1009100002C02FEF3FEFC90108958091940290E04B
:1009200020919502821B91090895CF92DF92EF9258
:10093000FF920F931F93CF93DF937C01CB018A012A
:1009400020919302222389F0EB016B01C40ED51E86
:10095000CC15DD0569F06991D701ED91FC9101900D
:10096000F081E02DC7010995F3CF642F0E943F0469
:10097000C801DF91CF911F910F91FF90EF90DF9011
:10098000CF900895CF93DF931F92CDB7DEB76983E1
:10099000209193022223D1F020919602203240F040
:1009A00021E030E0FC013383228380E090E015C039
:1009B00080919702E82FF0E0ED58FD4F99819083E8
:1009C0008F5F809397028093960205C061E0CE010D
:1009D00001960E943F0481E090E00F90DF91CF915B
:1009E0000895CF93DF93CDB7DEB728970FB6F8946D
:1009F000DEBF0FBECDBF98E0E6E0F1E0DE0111966C
:100A000001900D929A95E1F790919A03961710F440
:100A10006FEF690FFE013196E60FF11DE60FF11D34
:100A20006081680F606840E081E993E028960FB626
:100A3000F894DEBF0FBECDBFDF91CF910C9457036A
:100A400040E061E081E993E00E9457038BE39FE17E
:100A50000197F1F70895CF92DF92EF92FF92DC01B8
:100A6000A03282E0B8070CF03EC0B7FD06C0A53B3F
:100A7000B1052CF0A4EBB0E002C0A0E0B0E08091A2
:100A80009E0328E830E06901C81AD10887FDD39495
:100A9000CC0CDD1CCC0CDD1C0D2C000CEE08FF0872
:100AA00080919F0328E532E0281B310987FD3395AB
:100AB000220F331F220F331FA901330F660B770B51
:100AC0009A01AB012C193D094E095F090E948C0C5B
:100AD00024EB30E040E050E00E94620CC20ED31ED6
:100AE000E41EF51ED60190919D039C3098F58091EF
:100AF0009E0348E850E0481B510987FD5395440F79
:100B0000551F440F551FA417B5078CF080919F0304
:100B100028E532E0281B310987FD3395220F331F6A
:100B2000220F331FAD012A173B070CF4A9014250D5
:100B30005109440F551F2FB7F894892F90E0FC01FD
:100B4000EE0FFF1F8E0F9F1FFC01E459FC4F5283D5
:100B500041832FBFFF90EF90DF90CF900895CF9308
:100B6000DF93BC018FEC92E00E94E802EC0166EF9B
:100B700071E08FEC92E00E94E8028C0F9D1FDF91E4
:100B8000CF9108951F920F920FB60F9211242F93B9
:100B90003F934F935F936F937F938F939F93AF9305
:100BA000BF93EF93FF938091B900887F803609F45B
:100BB0009CC068F5883209F45BC090F4803109F478
:100BC00054C038F4882309F4F6C0883009F44DC0C5
:100BD000F6C0883109F44CC0803209F45DC0EFC022
:100BE000803409F468C048F4803309F455C0883370
:100BF00009F0E5C080939C02D8C0803509F44FC04D
:100C0000883509F45DC0883409F0D9C0D6C0883968
:100C100009F4C7C0A8F4883709F467C038F48836E7
:100C200009F463C0803709F460C0C9C0883809F48A
:100C3000B8C0803909F45FC0803809F0C0C05BC01B
:100C4000803B09F486C038F4803A09F466C0883ADB
:100C500009F47FC0B4C0803C09F4A7C0883C09F403
:100C6000A4C0883B09F48AC0AAC08091C20210C007
:100C70009091C1028091C002981770F5E091C10275
:100C800081E08E0F8093C102F0E0E056FD4F80813D
:100C90008093BB0085EC86C080939C028EC0E0915F
:100CA000C10281E08E0F8093C1028091BB00F0E011
:100CB000E056FD4F80839091C1028091C0026EC0CA
:100CC000E091C10281E08E0F8093C1028091BB0050
:100CD000F0E0E056FD4F808380919F0281116DC04E
:100CE00081E080939E0284EA61C083E080939D024C
:100CF00010920604CFCF80910604803208F051C0D4
:100D0000E091060481E08E0F809306048091BB0081
:100D1000F0E0EA51FC4F8083BDCF85EC8093BC00AE
:100D200010929D0280910604803230F4E091060416
:100D3000F0E0EA51FC4F10826091060470E0E0910F
:100D40009A02F0919B0286EE93E0099510920604B8
:100D500036C084E080939D021092E5031092E40374
:100D6000E0919802F091990209958091E403811134
:100D700005C081E08093E4031092C403E091E50391
:100D800081E08E0F8093E503F0E0EC53FC4F80810F
:100D90008093BB009091E5038091E403981708F4D9
:100DA00079CF85E88093BC000AC085EC8093BC00B5
:100DB00010929D0204C010929C020E943504FF9183
:100DC000EF91BF91AF919F918F917F916F915F91C3
:100DD0004F913F912F910F900FBE0F901F9018953C
:100DE00090E0FC01EC55FF4F2491FC01E057FF4FD0
:100DF0003491FC01E458FF4FE491EE2309F43CC028
:100E0000222339F1233091F038F42130A9F0223037
:100E100001F584B58F7D12C0273091F02830A1F004
:100E20002430B9F4809180008F7D03C080918000D0
:100E30008F77809380000DC084B58F7784BD09C003
:100E40008091B0008F7703C08091B0008F7D809338
:100E5000B000F0E0EE0FFF1FEE58FF4FA591B491E8
:100E60009FB7F894611104C08C913095382302C06B
:100E7000EC913E2B3C939FBF0895CF93DF9390E07E
:100E8000FC01E057FF4F2491FC01E458FF4F84918F
:100E9000882361F190E0880F991FFC01E859FF4F0A
:100EA000C591D491FC01EE58FF4FA591B491611109
:100EB00009C09FB7F8948881209582238883EC919C
:100EC0002E230BC0623061F49FB7F8948881322FD3
:100ED000309583238883EC912E2B2C939FBF06C0E3
:100EE0008FB7F894E8812E2B28838FBFDF91CF91A5
:100EF00008958F929F92AF92BF92CF92DF92EF921E
:100F0000FF926B017C010E9479024B015C01C114CC
:100F1000D104E104F104F1F00E947902DC01CB017B
:100F200088199909AA09BB09883E9340A105B10512
:100F300070F321E0C21AD108E108F10888EE880EAA
:100F400083E0981EA11CB11CC114D104E104F1047A
:100F500019F7DDCFFF90EF90DF90CF90BF90AF906B
:100F60009F908F900895CF93DF93CDB7DEB7A99769
:100F70000FB6F894DEBF0FBECDBF789484B5826003
:100F800084BD84B5816084BD85B5826085BD85B52D
:100F9000816085BD80916E00816080936E001092AB
:100FA0008100809181008260809381008091810026
:100FB00081608093810080918000816080938000B7
:100FC0008091B10084608093B1008091B000816015
:100FD0008093B00080917A00846080937A00809141
:100FE0007A00826080937A0080917A008160809399
:100FF0007A0080917A00806880937A001092C10014
:10100000E091DF02F091E00282E08083E091DB0278
:10101000F091DC021082E091DD02F091DE0280E1CD
:1010200080831092E702E091E302F091E40286E00F
:101030008083E091E102F091E2028081806180830F
:10104000E091E102F091E202808188608083E0918A
:10105000E102F091E202808180688083E091E10208
:10106000F091E20280818F7D80838EE391E00E9487
:10107000AF0580919D038C3008F051C061E083E0A2
:101080000E943D0780919D03E82FF0E09F01220F11
:10109000331FE20FF31FE459FC4F9081907C936063
:1010A000908310929E0310929F036CE00E94FC0CB0
:1010B0009CE0899FB001112440E050E09B01240F87
:1010C000351FF901EE0FFF1F2E0F3F1FF901E459E5
:1010D000FC4F908196FD16C04F5F5F4F4C3051051D
:1010E00069F781110FC01092800082E08093810027
:1010F0001092850010928400B19A80916F008260F6
:1011000080936F00E0919D03F0E0CF01880F991F5D
:10111000E80FF91FE459FC4F80818064808380E0F0
:1011200090E00E942B05109295021092940210926A
:1011300097021092960210929D0281E080939F0286
:1011400010929E0261E082E10E94F00661E083E17C
:101150000E94F0068091B9008E7F8093B900809143
:10116000B9008D7F8093B90088E48093B80085E44E
:101170008093BC0087E694E0909399028093980254
:1011800088E694E090939B0280939A0210929603D3
:1011900080919A03823018F098E090939603909192
:1011A0009B03992339F0813029F480919603846060
:1011B0008093960362E370E080E090E00E947907FC
:1011C00060919C0381E993E00E94FC0168EE73E06A
:1011D00080E090E00E94790760E381E993E00E945B
:1011E00060020BE416E4C8010197F1F760E381E9BE
:1011F00093E00E946002C8010197F1F760E381E982
:1012000093E00E94600283E592E00197F1F760E2CB
:1012100081E993E00E94600260919603606240E081
:1012200081E993E00E94570384E08093970340E0B4
:101230006CE081E993E00E9457030E94200582E060
:101240008093980340E066E081E993E00E945703B1
:1012500040E062E081E993E00E9457038BE39FE165
:101260000197F1F70E94200561E081E00E94F104FE
:101270006EE371E081E993E00E94FD0263E081E0AA
:101280000E94F10461E571E081E993E00E94FD02B2
:1012900060ED77E080E090E00E9479070E942005F1
:1012A00066E571E081E993E00E94FD0261E080E083
:1012B0000E94F10466E671E081E993E00E94FD027C
:1012C00062E080E00E94F10460E771E081E993E070
:1012D0000E94FD0263E080E00E94F10460E871E09A
:1012E00081E993E00E94FD0284E0282E312CAA249B
:1012F000A394B12C2AE0422E512C612C712C8FEC3E
:1013000092E00E94E200181619060CF089C08FECDA
:1013100092E00E94E200019739F48FEC92E00E9483
:10132000C000809369027CC08FEC92E00E94E200D2
:101330004C011BA21AA21DA21CA21FA21EA260E0A9
:1013400070E0CE0182960E94AB01811107C0CE01F0
:1013500082960E949701E12CF12C43C01FA21EA28D
:1013600068EF71E08AA19BA10E94030FF4CF8FEC7C
:1013700092E00E94C000182F1A8219821C821B82E0
:101380001E821D82BE016E5D7F4FCE0101960E94BE
:10139000D20118A719A60D811E810F5F1F4FB8013A
:1013A000CE0101960E94AB018823F9F029813A8190
:1013B0008D819E81BE01685D7F4F820F931F0E94C9
:1013C000030F1E830D83BE016F5F7F4FCE01829698
:1013D0000E94D20189819A810E94A60DEFEFEE1A38
:1013E000FE0AE814F9041CF205C0CE0101960E9421
:1013F0009701E9CF0AA11BA10115110521F0C80130
:101400000E94260C03C060E070E0CB01709368027C
:101410006093670281E080936602C8010E94A60D76
:101420008091A2039091A3038230910509F4A4C096
:101430002CF4009759F00197D1F112C18330910536
:1014400009F4B8C0049709F4D5C00AC180916902B3
:10145000873539F4B092A303A092A20380E991E00A
:1014600088C0843409F0FCC082E090E09093A3032C
:101470008093A20381EA91E00E94AF050E942005BB
:1014800064EB71E081E993E00E94FD0262E080E09C
:101490000E94F10463EC71E081E993E00E94FD0297
:1014A00063E080E00E94F10463ED71E0D5C08091BB
:1014B0006602882309F452C066EE71E08FEC92E078
:1014C0000E94FD0220916702309168026901330F8A
:1014D000EE08FF08F7FE20C06DE28FEC92E00E945C
:1014E0001A0122273327A9012C193D094E095F094A
:1014F00019A28E010F5D1F4FCA01B901A30192010C
:101500000E94CB0C605DF80162938F0121153105BB
:101510004105510589F715C0A701960119A28E0151
:101520000F5D1F4FCA01B901A30192010E94CB0CAC
:10153000605DF80162938F01211531054105510568
:1015400089F7B8018FEC92E00E94E80266EF71E043
:101550008FEC92E00E94E80210926602809169028C
:10156000813509F07DC01092A3031092A20389EF88
:1015700091E00E94AF0574C080916902833509F043
:101580006FC083E090E09093A3038093A20389E06F
:1015900092E00E94AF050E94200568E172E081E9B7
:1015A00093E00E94FD0261E080E00E94F10468E2A5
:1015B00072E052C080916902863409F051C03092C5
:1015C000A3032092A20385E392E00E94AF058DE27F
:1015D00090E00E942B050E94200563E472E081E9FF
:1015E00093E00E94FD0261E080E00E94F10463E567
:1015F00072E032C080916902823591F51092A303A6
:101600001092A20389EF91E00E94AF0580E090E084
:101610000E942B050E94200566E571E081E993E0B8
:101620000E94FD0261E080E00E94F10466E671E044
:1016300081E993E00E94FD0262E080E00E94F104F3
:1016400060E771E081E993E00E94FD0263E080E0E1
:101650000E94F10460E871E081E993E00E94FD02DC
:101660000E9489014CCECF92DF92EF92FF92CF93EE
:10167000DF931092C6021092C50288EE93E0A0E0BC
:10168000B0E08093C7029093C802A093C902B093C0
:10169000CA0222E131E03093C4022093C3021092C7
:1016A000D2021092D1028093D3029093D402A093DD
:1016B000D502B093D60284E291E09093D002809359
:1016C000CF0285EC90E09093DC028093DB0284EC07
:1016D00090E09093DE028093DD0280EC90E09093A6
:1016E000E0028093DF0281EC90E09093E20280932D
:1016F000E10282EC90E09093E4028093E30286ECB6
:1017000090E09093E6028093E5021092E802109236
:10171000E9021092EA021092EB021092A1031092D9
:10172000A0031092A3031092A203C1E0D0E0D093D3
:101730001C04C0931B04D0931E04C0931D0410927C
:10174000200410921F04109221041092220410927F
:1017500023041092240485E090E090931A0480936F
:10176000190462E00E943D0732E3C32ED12CE12C24
:10177000F12CC0922504D0922604E0922704F09226
:101780002804D0930C04C0930B04D0930E04C09390
:101790000D041092100410920F0410921104109274
:1017A0001204109213041092140486E090E09093B7
:1017B0000A048093090462E00E943D07C092150468
:1017C000D0921604E0921704F09218048EE090E094
:1017D0009093080480930704809190038C30A0F4C8
:1017E00091E0980F9093900380939D0390E0FC010B
:1017F000EE0FFF1F8E0F9F1FFC01E459FC4F88EB7B
:101800009BE09283818303C08FEF80939D031092AE
:1018100094031092930386E391E090939203809354
:1018200091038FE38093950384E18093990384E08F
:1018300080939A0310929B0388E080939C03DF912E
:10184000CF91FF90EF90DF90CF9008951F93FC0110
:1018500099278827BC01E89411911032E9F31930D7
:1018600010F01E30C8F31B3251F01D3249F4689459
:1018700006C00E944D0C610F711D811D911D1191BB
:1018800010531A30B0F33EF49095809570956195A1
:101890007F4F8F4F9F4F1F910895592F482F372FFC
:1018A000262F660F771F881F991F660F771F881FC7
:1018B000991F620F731F841F951F660F771F881F64
:1018C000991F0895052E97FB1EF400940E94790C31
:1018D00057FD07D00E94CB0C07FC03D04EF40C94AC
:1018E000790C50954095309521953F4F4F4F5F4F64
:1018F000089590958095709561957F4F8F4F9F4F7C
:1019000008950E94ED0CA59F900DB49F900DA49F8B
:10191000800D911D11240895B7FF0C94810C0E9435
:10192000810C821B930B08952F923F924F925F92EE
:101930006F927F928F929F92AF92BF92CF92DF92DF
:10194000EF92FF920F931F93CF93DF93CDB7DEB744
:10195000CA1BDB0B0FB6F894DEBF0FBECDBF0994D8
:101960002A88398848885F846E847D848C849B842F
:10197000AA84B984C884DF80EE80FD800C811B813D
:10198000AA81B981CE0FD11D0FB6F894DEBF0FBE6C
:10199000CDBFED010895A1E21A2EAA1BBB1BFD01CC
:1019A0000DC0AA1FBB1FEE1FFF1FA217B307E4073E
:1019B000F50720F0A21BB30BE40BF50B661F771F96
:1019C000881F991F1A9469F7609570958095909576
:1019D0009B01AC01BD01CF010895A29FB001B39F4F
:1019E000C001A39F700D811D1124911DB29F700D28
:1019F000811D1124911D0895991B79E004C0991F40
:101A0000961708F0961B881F7A95C9F78095089558
:101A1000EE0FFF1F0590F491E02D09940F931F9393
:101A2000CF93DF938230910510F482E090E0E09153
:101A30002B04F0912C0420E030E0A0E0B0E03097DF
:101A400019F1408151810281138148175907C8F06B
:101A50008417950769F4109731F012960C9312973A
:101A600013961C9327C000932B0410932C0422C0C0
:101A70002115310519F04217530718F49A01BD01D9
:101A8000EF01DF01F801DBCF21153105F9F0281B4B
:101A9000390B2430310580F48A819B8161157105F1
:101AA00021F0FB019383828304C090932C048093E4
:101AB0002B04FE01329644C0FE01E20FF31F819316
:101AC000919322503109398328833AC02091290407
:101AD00030912A04232B41F420910201309103011B
:101AE00030932A04209329042091000130910101B0
:101AF0002115310541F42DB73EB7409104015091B5
:101B00000501241B350BE0912904F0912A04E2170A
:101B1000F307A0F42E1B3F0B2817390778F0AC0110
:101B20004E5F5F4F2417350748F04E0F5F1F5093ED
:101B30002A04409329048193919302C0E0E0F0E0ED
:101B4000CF01DF91CF911F910F910895CF93DF9334
:101B5000009709F481C0FC01329713821282A09190
:101B60002B04B0912C04109781F420813181820FD5
:101B7000931F2091290430912A042817390751F521
:101B8000F0932A04E093290467C0ED0120E030E0DF
:101B9000CE17DF0740F44A815B819E014115510554
:101BA000F1F0EA01F5CFD383C28340815181840FE4
:101BB000951FC817D90759F488819981840F951FFB
:101BC0000296918380838A819B81938382832115EE
:101BD000310529F4F0932C04E0932B043DC0E90176
:101BE000FB83EA8349915991C40FD51FEC17FD0778
:101BF00061F480819181840F951F0296E901998398
:101C00008883828193819B838A83E0E0F0E012964F
:101C10008D919C911397009719F0FD01DC01F7CF8E
:101C20008D919C9111979D012E5F3F4F820F931FC5
:101C30002091290430912A042817390769F4309734
:101C400029F410922C0410922B0402C013821282E9
:101C5000B0932A04A0932904DF91CF910895A0E0C6
:101C6000B0E0E5E3FEE00C94980CEC01009721F461
:101C7000CB010E940E0DB4C0FC01E60FF71F9C01C2
:101C800022503109E217F30708F4A8C0D9010D91D9
:101C90001C91119706171707B0F00530110508F4CD
:101CA0009BC0C80104978617970708F495C0025097
:101CB0001109061B170B019311936D937C93CF01B0
:101CC0000E94A60D89C05B01A01AB10A4C01800ECA
:101CD000911EA0912B04B0912C04612C712CE12C4D
:101CE000F12C109709F446C08D919C911197A8157D
:101CF000B905B1F56C0142E0C40ED11CCA14DB0475
:101D000078F14C018A189B08640142E0C40ED11C92
:101D10001296BC9012971396AC91B5E0CB16D104F5
:101D200040F0B282A38391828082D9016D937C932B
:101D300009C00E5F1F4F800F911FF90191838083AF
:101D4000EB2DFA2FE114F10431F0D7011396FC9337
:101D5000EE93129741C0F0932C04E0932B043CC007
:101D60006816790608F43C017D0112960D90BC912D
:101D7000A02DB7CF8091290490912A048816990646
:101D8000E1F466167706C8F4809100019091010194
:101D9000009741F48DB79EB7409104015091050121
:101DA000841B950BE817F907C8F4F0932A04E09315
:101DB0002904F901718360830FC0CB010E940E0DCD
:101DC0007C01009759F0A801BE010E94FA0ECE01D5
:101DD0000E94A60DC70104C0CE0102C080E090E0C1
:101DE000CDB7DEB7EEE00C94B40C81E090E0F8944F
:101DF0000C940A0FFB01DC0102C001900D924150CE
:101E00005040D8F70895FB01DC0101900D920020AD
:081E1000E1F70895F894FFCFFB
:101E180000002D04200000004000140054000000C1
:101E28000000C2049504940169048D0479046A04CD
:101E3800000000001A018700B1006701E200C0003D
:101E4800D400000000006E038700940193015379C9
:101E58007374656D20696E697469616C697A65640B
:101E68000056302E310050726573696F6E652044DC
:101E780020706172610064697370656E73617200CD
:101E880050726573696F6E652057207061726100CA
:101E980063616D62696172206772616D616A650074
:101EA80053746174653A3D205345544752414D532C
:101EB8000053746174653A3D2044495350454E536C
:101EC800494E470044697370656E73616E646F2E86
:101ED8002E2E0050726573696F6E652053207061F5
:101EE800726100646574656E6572206469737065FB
:101EF8006E7361646F0057656967687420736574F1
:101F080020746F3D20000D0A0053746174653A3DDA
:101F1800205354414E4442590053746174653A3D0C
:101F2800205345525645440050726573696F6E657B
:101F38002046207061726100766163696172207465
:101F48006F6C76610053746174653A3D20464C5558
:101F580053480050726573696F6E65205220706136
:101F68007261007465726D696E6172207661636971
:041F780061646F0031
:00000001FF
