:100000000C9435000C945D000C945D000C945D0024
:100010000C945D000C945D000C945D000C945D00EC
:100020000C945D000C945D000C945D000C945D00DC
:100030000C945D000C945D000C945D000C945D00CC
:100040000C94F4010C945D000C9464020C943E0238
:100050000C945D000C945D000C945D000C945D00AC
:100060000C945D000C945D00960211241FBECFEF2E
:10007000D8E0DEBFCDBF22E0A0E9B1E001C01D9213
:10008000A334B207E1F711E0A0E0B1E0E0E6FEE062
:1000900002C005900D92A039B107D9F710E0C5E371
:1000A000D0E004C02197FE010E942C05C433D10783
:1000B000C9F70E94CB020C942E070C940000CF923B
:1000C000DF92EF92FF920F931F93CF93DF936C0118
:1000D0007A018B01C0E0D0E0CE15DF0581F0D801B8
:1000E0006D918D01D601ED91FC910190F081E02D93
:1000F000C6010995892B11F02196EECF7E01C7012B
:10010000DF91CF911F910F91FF90EF90DF90CF90F3
:100110000895089580E090E00895FC01538D448D8A
:10012000252F30E0842F90E0821B930B541710F0A2
:10013000CF96089501970895FC01918D828D9817AF
:1001400061F0828DDF01A80FB11D5D968C91928DBB
:100150009F5F9F73928F90E008958FEF9FEF0895B8
:10016000FC01918D828D981731F0828DE80FF11D81
:10017000858D90E008958FEF9FEF0895FC01918D9C
:10018000228D892F90E0805C9F4F821B91098F7395
:10019000992708958DE991E00E94BE0021E0892B06
:1001A00009F420E0822F0895FC01848DDF01A80F5F
:1001B000B11DA35ABF4F2C91848D90E001968F738F
:1001C0009927848FA689B7892C93A089B1898C91AE
:1001D000837080648C93938D848D981306C00288FD
:1001E000F389E02D80818F7D80830895EF92FF92C7
:1001F0000F931F93CF93DF93EC0181E0888F9B8D4A
:100200008C8D981305C0E889F989808185FD26C009
:10021000F62E0B8D10E00F5F1F4F0F731127E02E8E
:100220008C8DE8120CC00FB607FCFACFE889F9896B
:10023000808185FFF5CFCE010E94D400F1CF8B8D58
:10024000FE01E80FF11DE35AFF4FF0829FB7F894CB
:100250000B8FEA89FB89808180620AC09FB7F8947E
:10026000EE89FF896083E889F989808183708064E1
:1002700080839FBF81E090E0DF91CF911F910F912C
:10028000FF90EF900895CF93DF93EC01888D882342
:10029000C9F0EA89FB89808185FD05C0A889B989F3
:1002A0008C9186FD0FC00FB607FCF5CF808185FFCE
:1002B000F2CFA889B9898C9185FFEDCFCE010E943C
:1002C000D400E7CFDF91CF91089580E090E0892BB3
:1002D00029F00E94CA0081110C9400000895009733
:1002E00069F0FC0101900020E9F73197AF01481B4C
:1002F000590BBC018DE991E00C945F0080E090E027
:100300000895CF93DF930E946F01EC0188E191E0A3
:100310000E946F018C0F9D1FDF91CF910895CF93A5
:10032000DF93EC0188819981009711F00E94CA0542
:10033000198218821D821C821B821A82DF91CF9142
:1003400008950E9419070F931F93CF93DF93EC0139
:1003500088819981009729F02A813B8126173707E8
:1003600088F48B016F5F7F4F0E945306009761F006
:10037000998388831B830A832C813D81232B11F46D
:10038000FC01108281E001C080E0DF91CF911F91DC
:100390000F910895EF92FF920F931F93CF93DF93E6
:1003A000EC0186179707C1F0FB010081118101154F
:1003B000110539F0E480F580B7010E94A301811195
:1003C00004C0CE010E948F0107C0FD82EC82B801FB
:1003D000888199810E942707CE01DF91CF911F91DB
:1003E0000F91FF90EF9008951F920F920FB60F920A
:1003F00011242F933F938F939F93AF93BF9380913B
:10040000990190919A01A0919B01B0919C0130912A
:10041000980123E0230F2D3720F40196A11DB11D73
:1004200005C026E8230F0296A11DB11D2093980157
:100430008093990190939A01A0939B01B0939C01A2
:100440008091940190919501A0919601B0919701AE
:100450000196A11DB11D8093940190939501A093E5
:100460009601B0939701BF91AF919F918F913F916A
:100470002F910F900FBE0F901F9018951F920F9203
:100480000FB60F9211242F933F934F935F936F9367
:100490007F938F939F93AF93BF93EF93FF938DE9D8
:1004A00091E00E94D400FF91EF91BF91AF919F9195
:1004B0008F917F916F915F914F913F912F910F900D
:1004C0000FBE0F901F9018951F920F920FB60F92AC
:1004D00011242F938F939F93EF93FF93E091AD019E
:1004E000F091AE018081E091B301F091B40182FD01
:1004F00012C090818091B6018F5F8F732091B701F8
:10050000821751F0E091B601F0E0E356FE4F958F6F
:100510008093B60101C08081FF91EF919F918F91EF
:100520002F910F900FBE0F901F901895EDE9F1E0FD
:100530001382128288EE93E0A0E0B0E0848395837A
:10054000A683B7838AE091E09183808385EC90E075
:100550009587848784EC90E09787868780EC90E08D
:10056000918B808B81EC90E0938B828B82EC90E07E
:10057000958B848B86EC90E0978B868B118E128EF8
:10058000138E148EEBE3F2E011821082138212823A
:1005900010923A020895CF93DF93CDB7DEB7A997B3
:1005A0000FB6F894DEBF0FBECDBF789484B58260DD
:1005B00084BD84B5816084BD85B5826085BD85B507
:1005C000816085BD80916E00816080936E00109285
:1005D0008100809181008260809381008091810000
:1005E0008160809381008091800081608093800091
:1005F0008091B10084608093B1008091B0008160EF
:100600008093B00080917A00846080937A0080911A
:100610007A00826080937A0080917A008160809372
:100620007A0080917A00806880937A001092C100ED
:10063000E091AD01F091AE0182E08083E091A901EB
:10064000F091AA011082E091AB01F091AC0180E140
:1006500080831092B501E091B101F091B20186E082
:100660008083E091AF01F091B0018081806180834F
:10067000E091AF01F091B001808188608083E091CA
:10068000AF01F091B001808180688083E091AF017B
:10069000F091B00180818F7D80838BE191E00E9499
:1006A000810184E0282E312CAA24A394B12C2AE0C5
:1006B000422E512C612C712C8DE991E00E94BE00DC
:1006C000181619060CF089C08DE991E00E94BE0051
:1006D000019739F48DE991E00E949C008093930189
:1006E0007CC08DE991E00E94BE004C011BA21AA2C1
:1006F0001DA21CA21FA21EA260E070E0CE01829685
:100700000E94A301811107C0CE0182960E948F0131
:10071000E12CF12C43C01FA21EA26AE171E08AA164
:100720009BA10E942707F4CF8DE991E00E949C00D5
:10073000182F1A8219821C821B821E821D82BE0102
:100740006E5D7F4FCE0101960E94CA0118A719A6BF
:100750000D811E810F5F1F4FB801CE0101960E94CF
:10076000A3018823F9F029813A818D819E81BE0100
:10077000685D7F4F820F931F0E9427071E830D83A2
:10078000BE016F5F7F4FCE0182960E94CA018981B0
:100790009A810E94CA058FEFE81AF80AE814F90452
:1007A0001CF205C0CE0101960E948F01E9CF0AA17B
:1007B0001BA10115110521F0C8010E94970403C077
:1007C00060E070E0CB01709392016093910181E051
:1007D00080939001C8010E94CA0580913D029091CA
:1007E0003E028230910509F481C02CF4009759F043
:1007F000019701F199C08330910509F486C00497EF
:1008000009F48EC091C080919301873539F4B0927C
:100810003E02A0923D028EE291E074C0843409F061
:1008200083C0E2E0F0E0F0933E02E0933D028FE30C
:1008300091E068C080919001882309F44CC082E562
:1008400091E00E946F012091910130919201690124
:10085000330FEE08FF08F7FE20C06DE28DE991E04E
:100860000E94F60022273327A9012C193D094E09C1
:100870005F0919A28E010F5D1F4FCA01B901A301C3
:1008800092010E940A05605DF80162938F012115B3
:1008900031054105510589F715C0A701960119A237
:1008A0008E010F5D1F4FCA01B901A30192010E9481
:1008B0000A05605DF80162938F012115310541053C
:1008C000510589F7C8010E946F0188E191E00E94FB
:1008D0006F011092900180919301813529F510925A
:1008E0003E0210923D0282E691E00CC0809193019D
:1008F0008335D1F483E090E090933E0280933D02F3
:1009000082E791E00E9481010FC0809193018634BB
:1009100059F430923E0220923D0281E891E0F2CFFC
:10092000809193018235D9F20E946501C5CE1F9353
:10093000FC0199278827BC01E89411911032E9F352
:10094000193010F01E30C8F31B3251F01D3249F43B
:10095000689406C00E94BE04610F711D811D911D27
:10096000119110531A30B0F33EF490958095709524
:1009700061957F4F8F4F9F4F1F910895592F482F9B
:10098000372F262F660F771F881F991F660F771F37
:10099000881F991F620F731F841F951F660F771F93
:1009A000881F991F08952F923F924F925F926F92E6
:1009B0007F928F929F92AF92BF92CF92DF92EF92EF
:1009C000FF920F931F93CF93DF93CDB7DEB7CA1B70
:1009D000DB0B0FB6F894DEBF0FBECDBF09942A889B
:1009E000398848885F846E847D848C849B84AA8443
:1009F000B984C884DF80EE80FD800C811B81AA81D0
:100A0000B981CE0FD11D0FB6F894DEBF0FBECDBF9A
:100A1000ED010895A1E21A2EAA1BBB1BFD010DC01A
:100A2000AA1FBB1FEE1FFF1FA217B307E407F5079E
:100A300020F0A21BB30BE40BF50B661F771F881F7A
:100A4000991F1A9469F760957095809590959B0110
:100A5000AC01BD01CF010895EE0FFF1F0590F49189
:100A6000E02D09940F931F93CF93DF93823091056C
:100A700010F482E090E0E0914102F091420220E027
:100A800030E0A0E0B0E0309719F14081518102815F
:100A9000138148175907C8F08417950769F4109710
:100AA00031F012960C93129713961C9327C0009363
:100AB00041021093420222C02115310519F042175C
:100AC000530718F49A01BD01EF01DF01F801DBCFF4
:100AD00021153105F9F0281B390B2430310580F43C
:100AE0008A819B816115710521F0FB0193838283CB
:100AF00004C09093420280934102FE01329644C0AA
:100B0000FE01E20FF31F8193919322503109398343
:100B100028833AC020913F0230914002232B41F4B8
:100B200020910201309103013093400220933F0253
:100B300020910001309101012115310541F42DB7BB
:100B40003EB74091040150910501241B350BE09103
:100B50003F02F0914002E217F307A0F42E1B3F0B77
:100B60002817390778F0AC014E5F5F4F241735071F
:100B700048F04E0F5F1F5093400240933F02819315
:100B8000919302C0E0E0F0E0CF01DF91CF911F919F
:100B90000F910895CF93DF93009709F481C0FC0172
:100BA000329713821282A0914102B09142021097B3
:100BB00081F420813181820F931F20913F02309177
:100BC00040022817390751F5F0934002E0933F02A5
:100BD00067C0ED0120E030E0CE17DF0740F44A8126
:100BE0005B819E0141155105F1F0EA01F5CFD383F8
:100BF000C28340815181840F951FC817D90759F4CA
:100C000088819981840F951F0296918380838A81C0
:100C10009B81938382832115310529F4F09342024D
:100C2000E09341023DC0E901FB83EA834991599178
:100C3000C40FD51FEC17FD0761F480819181840FEB
:100C4000951F0296E90199838883828193819B8312
:100C50008A83E0E0F0E012968D919C9113970097C3
:100C600019F0FD01DC01F7CF8D919C9111979D0149
:100C70002E5F3F4F820F931F20913F023091400221
:100C80002817390769F4309729F41092420210921C
:100C9000410202C013821282B0934002A0933F022D
:100CA000DF91CF910895A0E0B0E0E9E5F6E00C9483
:100CB000D704EC01009721F4CB010E943205B4C0A7
:100CC000FC01E60FF71F9C0122503109E217F307E0
:100CD00008F4A8C0D9010D911C91119706171707A8
:100CE000B0F00530110508F49BC0C80104978617C1
:100CF000970708F495C002501109061B170B0193C2
:100D000011936D937C93CF010E94CA0589C05B014A
:100D1000A01AB10A4C01800E911EA0914102B0911F
:100D20004202612C712CE12CF12C109709F446C081
:100D30008D919C911197A815B905B1F56C0142E010
:100D4000C40ED11CCA14DB0478F14C018A189B082C
:100D5000640142E0C40ED11C1296BC901297139607
:100D6000AC91B5E0CB16D10440F0B282A38391825E
:100D70008082D9016D937C9309C00E5F1F4F800F55
:100D8000911FF90191838083EB2DFA2FE114F10477
:100D900031F0D7011396FC93EE93129741C0F09374
:100DA0004202E09341023CC06816790608F43C0117
:100DB0007D0112960D90BC91A02DB7CF80913F027E
:100DC0009091400288169906E1F466167706C8F4F9
:100DD0008091000190910101009741F48DB79EB779
:100DE0004091040150910501841B950BE817F90708
:100DF000C8F4F0934002E0933F02F90171836083ED
:100E00000FC0CB010E9432057C01009759F0A80168
:100E1000BE010E941E07CE010E94CA05C70104C080
:100E2000CE0102C080E090E0CDB7DEB7EEE00C94DA
:100E3000F30481E090E0F8940C942E07FB01DC01B0
:100E400002C001900D9241505040D8F70895FB0127
:100E5000DC0101900D920020E1F70895F894FFCF96
:100E600000004302200000000000F6005F008D003B
:100E70004301BE009C00B0000D0A005379737465F5
:100E80006D20696E697469616C697A656400537478
:100E90006174653A3D205345544752414D530053C8
:100EA000746174653A3D2044495350454E53494E50
:100EB00047005765696768742073657420746F3DD7
:100EC000200053746174653A3D205354414E4442AE
:100ED000590053746174653A3D2053455256454458
:100EE0000053746174653A3D20464C5553480000E8
:00000001FF
