:100000000C9435000C945D000C945D000C945D0024
:100010000C945D000C945D000C945D000C945D00EC
:100020000C945D000C945D000C945D000C945D00DC
:100030000C945D000C945D000C945D000C945D00CC
:100040000C9471010C945D000C94E1010C94BB01C3
:100050000C945D000C945D000C945D000C945D00AC
:100060000C945D000C945D00960211241FBECFEF2E
:10007000D8E0DEBFCDBF11E0A0E0B1E0E0EAF5E0FE
:1000800002C005900D92A632B107D9F721E0A6E291
:10009000B1E001C01D92AC3CB207E1F710E0C5E34E
:1000A000D0E004C02197FE010E94C302C433D107EF
:1000B000C9F70E9413020C94CE020C940000CF9258
:1000C000DF92EF92FF920F931F93CF93DF936C0118
:1000D0007A018B01C0E0D0E0CE15DF0581F0D801B8
:1000E0006D918D01D601ED91FC910190F081E02D93
:1000F000C6010995892B11F02196EECF7E01C7012B
:10010000DF91CF911F910F91FF90EF90DF90CF90F3
:100110000895089580E090E00895FC01538D448D8A
:10012000252F30E0842F90E0821B930B541710F0A2
:10013000CF96089501970895FC01918D828D9817AF
:1001400061F0828DDF01A80FB11D5D968C91928DBB
:100150009F5F9F73928F90E008958FEF9FEF0895B8
:10016000FC01918D828D981731F0828DE80FF11D81
:10017000858D90E008958FEF9FEF0895FC01918D9C
:10018000228D892F90E0805C9F4F821B91098F7395
:100190009927089586E291E00E94BE0021E0892B14
:1001A00009F420E0822F0895FC01848DDF01A80F5F
:1001B000B11DA35ABF4F2C91848D90E001968F738F
:1001C0009927848FA689B7892C93A089B1898C91AE
:1001D000837080648C93938D848D981306C00288FD
:1001E000F389E02D80818F7D80830895EF92FF92C7
:1001F0000F931F93CF93DF93EC0181E0888F9B8D4A
:100200008C8D981305C0E889F989808185FD26C009
:10021000F62E0B8D10E00F5F1F4F0F731127E02E8E
:100220008C8DE8120CC00FB607FCFACFE889F9896B
:10023000808185FFF5CFCE010E94D400F1CF8B8D58
:10024000FE01E80FF11DE35AFF4FF0829FB7F894CB
:100250000B8FEA89FB89808180620AC09FB7F8947E
:10026000EE89FF896083E889F989808183708064E1
:1002700080839FBF81E090E0DF91CF911F910F912C
:10028000FF90EF900895CF93DF93EC01888D882342
:10029000C9F0EA89FB89808185FD05C0A889B989F3
:1002A0008C9186FD0FC00FB607FCF5CF808185FFCE
:1002B000F2CFA889B9898C9185FFEDCFCE010E943C
:1002C000D400E7CFDF91CF91089580E090E0892BB3
:1002D00029F00E94CA0081110C94000008950E9428
:1002E000C9021F920F920FB60F9211242F933F93C2
:1002F0008F939F93AF93BF938091C8019091C90151
:10030000A091CA01B091CB013091C70123E0230F26
:100310002D3720F40196A11DB11D05C026E8230F3D
:100320000296A11DB11D2093C7018093C80190932F
:10033000C901A093CA01B093CB018091C3019091F0
:10034000C401A091C501B091C6010196A11DB11DC6
:100350008093C3019093C401A093C501B093C601DB
:10036000BF91AF919F918F913F912F910F900FBEB1
:100370000F901F9018951F920F920FB60F92112495
:100380002F933F934F935F936F937F938F939F939D
:10039000AF93BF93EF93FF9386E291E00E94D40066
:1003A000FF91EF91BF91AF919F918F917F916F914D
:1003B0005F914F913F912F910F900FBE0F901F9023
:1003C00018951F920F920FB60F9211242F938F93AF
:1003D0009F93EF93FF93E0913601F0913701808175
:1003E000E0913C01F0913D0182FD12C0908180912D
:1003F0003F018F5F8F7320914001821751F0E09190
:100400003F01F0E0EA5DFE4F958F80933F0101C010
:100410008081FF91EF919F918F912F910F900FBE4F
:100420000F901F901895789484B5826084BD84B530
:10043000816084BD85B5826085BD85B5816085BDDF
:1004400080916E00816080936E0010928100809197
:10045000810082608093810080918100816080931F
:100460008100809180008160809380008091B10044
:1004700084608093B1008091B00081608093B0006F
:1004800080917A00846080937A0080917A00826003
:1004900080937A0080917A00816080937A008091C5
:1004A0007A00806880937A001092C100E091360152
:1004B000F091370182E08083E0913201F0913301C5
:1004C0001082E0913401F091350180E18083109237
:1004D0003E01E0913A01F0913B0186E08083E0919A
:1004E0003801F0913901808180618083E091380189
:1004F000F0913901808188608083E0913801F0912A
:100500003901808180688083E0913801F091390160
:1005100080818F7D808342E150E062E171E086E27C
:1005200091E00E945F000E946501FDCFE6E2F1E0EC
:100530001382128288EE93E0A0E0B0E0848395837A
:10054000A683B78384E091E09183808385EC90E07B
:100550009587848784EC90E09787868780EC90E08D
:10056000918B808B81EC90E0938B828B82EC90E07E
:10057000958B848B86EC90E0978B868B118E128EF8
:10058000138E148E0895EE0FFF1F0590F491E02D49
:10059000099481E090E0F8940C94CE02F894FFCF97
:1005A00000000000F6005F008D004301BE009C00CB
:1005B000B00053797374656D20696E697469616CFC
:0605C000697A6564000089
:00000001FF
