:100000000C945D000C9485000C9485000C94850084
:100010000C9485000C9485000C9485000C9485004C
:100020000C9485000C9485000C9485000C940503B9
:100030000C9485000C9485000C9485000C9485002C
:100040000C942D070C9485000C94B6020C9490022D
:100050000C9485000C9485000C9485000C9485000C
:100060000C9478050C948500000000002400270003
:100070002A0000000000250028002B0004040404CE
:100080000404040402020202020203030303030342
:10009000010204081020408001020408102001021F
:1000A00004081020000000080002010000030407FB
:1000B0000000000000000000BA0A11241FBECFEFAC
:1000C000D8E0DEBFCDBF12E0A0E0B1E0E0E6FCE1A9
:1000D00002C005900D92A436B107D9F724E0A4E63A
:1000E000B2E001C01D92AB30B207E1F710E0CDE500
:1000F000D0E004C02197FE010E942C0CCC35D10722
:10010000C9F70E9477070C942E0E0C940000CF9232
:10011000DF92EF92FF920F931F93CF93DF936C01C7
:100120007A018B01C0E0D0E0CE15DF0581F0D80167
:100130006D918D01D601ED91FC910190F081E02D42
:10014000C6010995892B11F02196EECF7E01C701DA
:10015000DF91CF911F910F91FF90EF90DF90CF90A3
:100160000895FC01538D448D252F30E0842F90E0BD
:10017000821B930B541710F0CF96089501970895A2
:10018000FC01918D828D981761F0828DDF01A80F9F
:10019000B11D5D968C91928D9F5F9F73928F90E0C1
:1001A00008958FEF9FEF0895FC01918D828D981730
:1001B00031F0828DE80FF11D858D90E008958FEF6D
:1001C0009FEF0895FC01918D228D892F90E0805C36
:1001D0009F4F821B91098F739927089586EC92E0B7
:1001E0000E94E20021E0892B09F420E0822F08958B
:1001F000FC01848DDF01A80FB11DA35ABF4F2C91C4
:10020000848D90E001968F739927848FA689B78992
:100210002C93A089B1898C91837080648C93938D89
:10022000848D981306C00288F389E02D80818F7D2C
:1002300080830895EF92FF920F931F93CF93DF93E4
:10024000EC0181E0888F9B8D8C8D981305C0E88927
:10025000F989808185FD26C0F62E0B8D10E00F5F99
:100260001F4F0F731127E02E8C8DE8120CC00FB6B4
:1002700007FCFACFE889F989808185FFF5CFCE01A7
:100280000E94F800F1CF8B8DFE01E80FF11DE35ABB
:10029000FF4FF0829FB7F8940B8FEA89FB8980812A
:1002A00080620AC09FB7F894EE89FF896083E8896D
:1002B000F98980818370806480839FBF81E090E0B2
:1002C000DF91CF911F910F91FF90EF900895CF9301
:1002D000DF93EC01888D8823C9F0EA89FB8980814E
:1002E00085FD05C0A889B9898C9186FD0FC00FB620
:1002F00007FCF5CF808185FFF2CFA889B9898C9161
:1003000085FFEDCFCE010E94F800E7CFDF91CF91BE
:10031000089580E090E0892B29F00E94EE00811181
:100320000C9400000895089580E090E00895CF9324
:10033000DF93EC0188819981009711F00E94CA0C2B
:10034000198218821D821C821B821A82DF91CF9132
:1003500008950E94190E0F931F93CF93DF93EC0122
:1003600088819981009729F02A813B8126173707D8
:1003700088F48B016F5F7F4F0E94530D009761F0EF
:10038000998388831B830A832C813D81232B11F45D
:10039000FC01108281E001C080E0DF91CF911F91CC
:1003A0000F910895EF92FF920F931F93CF93DF93D6
:1003B000EC0186179707C1F0FB010081118101153F
:1003C000110539F0E480F580B7010E94AB0181117D
:1003D00004C0CE010E94970107C0FD82EC82B801E3
:1003E000888199810E94270ECE01DF91CF911F91C4
:1003F0000F91FF90EF900895CF93FC01C48121E00D
:1004000020938A02C093650210928E0210928D0290
:100410008385682B8AEB92E00E94530490918D02B1
:10042000913208F045C0809194028111FCCF82E0A6
:100430008093940281E0809396028FEF80939302E1
:100440001092B8029093B702AAE6B2E0E7E9F2E0B0
:1004500080E0981721F02D9121938F5FFACF1092B1
:10046000B9028091B902CC0FC82BC093B902809118
:100470009502813061F4109295028091B9028093C7
:10048000BB008091BC0083FDF8CF85EC01C085EEF8
:100490008093BC00809194028230E1F380919302BA
:1004A0008F3F31F080919302803211F0809193025E
:1004B00010928E0210928D0210928A02CF910895AE
:1004C0000F931F93CF938C01C62F0E94FC016C2FBA
:1004D0006460C8010E94FC016C2F6B7FC8010E9400
:1004E000FC0183EC90E00197F1F7CF911F910F9100
:1004F00008956115710579F0FB0101900020E9F77D
:100500003197AF01461B570BDC01ED91FC91028046
:10051000F381E02D099480E090E008950C94790235
:100520001F920F920FB60F9211242F933F934F9368
:100530005F936F937F938F939F93AF93BF93EF934B
:10054000FF9386EC92E00E94F800FF91EF91BF913B
:10055000AF919F918F917F916F915F914F913F915B
:100560002F910F900FBE0F901F9018951F920F9212
:100570000FB60F9211242F938F939F93EF93FF93B6
:10058000E091D602F091D7028081E091DC02F091F7
:10059000DD0282FD12C090818091DF028F5F8F7338
:1005A0002091E002821751F0E091DF02F0E0EA537F
:1005B000FD4F958F8093DF0201C08081FF91EF9105
:1005C0009F918F912F910F900FBE0F901F901895B4
:1005D0000F931F93CF93DF938C01C62FD42F607F8F
:1005E000642B0E94600280E1C89FB00111246D2B32
:1005F000C801DF91CF911F910F910C94600241E0EF
:100600000E94E80281E090E008951F920F920FB6D9
:100610000F9211242F933F934F935F936F937F9388
:100620008F939F93AF93BF93EF93FF938091640257
:1006300087FF05C010928500109284001BC0209196
:100640006402022E000C330B8091870390E0281780
:10065000390784F480916402082E000C990BFC0188
:10066000EE0FFF1F8E0F9F1FFC01ED59FC4F808185
:1006700086FD15C0809164028F5F80936402209193
:100680006402022E000C330B8091870390E0281740
:100690003907C4F4809164028C3064F113C08091F6
:1006A0006402082E000C990BFC01EE0FFF1F8E0F49
:1006B0009F1FFC01ED59FC4F808160E08F730E9409
:1006C000A606D8CF8091840090918500049680344E
:1006D0009C4918F480E49CE905C0809184009091C5
:1006E0008500049690938900809388008FEF809313
:1006F00064023BC0209184003091850080916402A7
:10070000082E000C990BFC01EE0FFF1F8E0F9F1F90
:10071000FC01ED59FC4F81819281820F931F9093D0
:1007200089008093880080916402082E000C990B48
:10073000FC01EE0FFF1F8E0F9F1FFC01ED59FC4FB8
:10074000808186FF12C080916402082E000C990BF4
:10075000FC01EE0FFF1F8E0F9F1FFC01ED59FC4F98
:10076000808161E08F730E94A606FF91EF91BF9197
:10077000AF919F918F917F916F915F914F913F9139
:100780002F910F900FBE0F901F90189585ED8093BD
:10079000BC008091BC0084FDFCCF109294020895AF
:1007A0004091E403262F30E0240F311D2132310522
:1007B000DCF4209194022430C9F4FC0180E090E044
:1007C000861758F43091E4032191DC01AC53BC4FFF
:1007D000A30FB11D2C930196F3CF8091E403680F12
:1007E0006093E40380E0089581E0089582E0089535
:1007F000089508950895E0918C0280918B02E81786
:1008000030F4F0E0EC55FC4F808190E008958FEFDC
:100810009FEF089590918C0280918B02981750F46D
:10082000E92FF0E0EC55FC4F208130E09F5F909382
:100830008C0202C02FEF3FEFC901089580918B0217
:1008400090E020918C02821B91090895CF92DF9253
:10085000EF92FF920F931F93CF93DF937C01CB0115
:100860008A0120918A02222389F0EB016B01C40ED8
:10087000D51ECC15DD0569F06991D701ED91FC918C
:100880000190F081E02DC7010995F3CF642F0E94FC
:10089000D003C801DF91CF911F910F91FF90EF908E
:1008A000DF90CF900895CF93DF931F92CDB7DEB73F
:1008B000698320918A022223D1F020918D02203277
:1008C00040F021E030E0FC013383228380E090E0BF
:1008D00015C080918E02E82FF0E0E659FD4F998116
:1008E00090838F5F80938E0280938D0205C061E0BC
:1008F000CE0101960E94D00381E090E00F90DF913D
:10090000CF9108953FB7F8948091A0039091A103EF
:10091000A091A203B091A30326B5A89B05C02F3FC9
:1009200019F00196A11DB11D3FBFBA2FA92F982F15
:100930008827820F911DA11DB11DBC01CD0142E090
:10094000660F771F881F991F4A95D1F70895CF9397
:10095000DF93CDB7DEB728970FB6F894DEBF0FBE92
:10096000CDBF98E0E6E0F1E0DE01119601900D9236
:100970009A95E1F790919103961710F46FEF690F34
:10098000FE013196E60FF11DE60FF11D6081680F43
:10099000606840E088E893E028960FB6F894DEBFE0
:1009A0000FBECDBFDF91CF910C94E80240E061E033
:1009B00088E893E00E94E8028BE39FE10197F1F75A
:1009C0000895CF92DF92EF92FF92DC01A03282E095
:1009D000B8070CF03EC0B7FD06C0A53BB1052CF032
:1009E000A4EBB0E002C0A0E0B0E08091950328E85D
:1009F00030E06901C81AD10887FDD394CC0CDD1C06
:100A0000CC0CDD1C0D2C000CEE08FF088091960329
:100A100028E532E0281B310987FD3395220F331F6B
:100A2000220F331FA901330F660B770B9A01AB011D
:100A30002C193D094E095F090E94B00B24EB30E0F0
:100A400040E050E00E94860BC20ED31EE41EF51E4D
:100A5000D601909194039C3098F58091950348E8D5
:100A600050E0481B510987FD5395440F551F440F13
:100A7000551FA417B5078CF08091960328E532E046
:100A8000281B310987FD3395220F331F220F331F97
:100A9000AD012A173B070CF4A90142505109440F3C
:100AA000551F2FB7F894892F90E0FC01EE0FFF1F20
:100AB0008E0F9F1FFC01ED59FC4F528341832FBFC6
:100AC000FF90EF90DF90CF900895CF93DF93BC011C
:100AD00086EC92E00E947902EC0164EC71E086EC15
:100AE00092E00E9479028C0F9D1FDF91CF910895B3
:100AF0001F920F920FB60F9211242F933F934F9393
:100B00005F936F937F938F939F93AF93BF93EF9375
:100B1000FF938091B900887F803609F49CC068F506
:100B2000883209F45BC090F4803109F454C038F481
:100B3000882309F4F6C0883009F44DC0F6C0883126
:100B400009F44CC0803209F45DC0EFC0803409F470
:100B500068C048F4803309F455C0883309F0E5C013
:100B600080939302D8C0803509F44FC0883509F4CA
:100B70005DC0883409F0D9C0D6C0883909F4C7C02F
:100B8000A8F4883709F467C038F4883609F463C0DC
:100B9000803709F460C0C9C0883809F4B8C080390A
:100BA00009F45FC0803809F0C0C05BC0803B09F425
:100BB00086C038F4803A09F466C0883A09F47FC0E8
:100BC000B4C0803C09F4A7C0883C09F4A4C0883BA9
:100BD00009F48AC0AAC08091B90210C09091B802ED
:100BE0008091B702981770F5E091B80281E08E0FFE
:100BF0008093B802F0E0E956FD4F80818093BB00FE
:100C000085EC86C0809393028EC0E091B80281E0AB
:100C10008E0F8093B8028091BB00F0E0E956FD4F43
:100C200080839091B8028091B7026EC0E091B802C3
:100C300081E08E0F8093B8028091BB00F0E0E9560E
:100C4000FD4F80838091960281116DC081E0809379
:100C5000950284EA61C083E08093940210920604B6
:100C6000CFCF80910604803208F051C0E091060495
:100C700081E08E0F809306048091BB00F0E0EA5182
:100C8000FC4F8083BDCF85EC8093BC001092940212
:100C900080910604803230F4E0910604F0E0EA51DD
:100CA000FC4F10826091060470E0E0919102F09197
:100CB000920286EE93E009951092060436C084E015
:100CC000809394021092E5031092E403E0918F0266
:100CD000F091900209958091E403811105C081E0B3
:100CE0008093E4031092C403E091E50381E08E0F4A
:100CF0008093E503F0E0EC53FC4F80818093BB00D0
:100D00009091E5038091E403981708F479CF85E882
:100D10008093BC000AC085EC8093BC0010929402C2
:100D200004C0109293020E94C603FF91EF91BF91FD
:100D3000AF919F918F917F916F915F914F913F9173
:100D40002F910F900FBE0F901F90189590E0FC010F
:100D5000EC55FF4F2491FC01E057FF4F3491FC010B
:100D6000E458FF4FE491EE2309F43CC0222339F10B
:100D7000233091F038F42130A9F0223001F584B508
:100D80008F7D12C0273091F02830A1F02430B9F4C3
:100D9000809180008F7D03C0809180008F77809349
:100DA00080000DC084B58F7784BD09C08091B000EC
:100DB0008F7703C08091B0008F7D8093B000F0E00A
:100DC000EE0FFF1FEE58FF4FA591B4919FB7F89417
:100DD000611104C08C913095382302C0EC913E2BF8
:100DE0003C939FBF08958F929F92AF92BF92CF92F4
:100DF000DF92EF92FF926B017C010E9482044B0113
:100E00005C01C114D104E104F104F1F00E948204F8
:100E1000DC01CB0188199909AA09BB09883E9340D6
:100E2000A105B10570F321E0C21AD108E108F1086B
:100E300088EE880E83E0981EA11CB11CC114D10459
:100E4000E104F10419F7DDCFFF90EF90DF90CF9030
:100E5000BF90AF909F908F9008951F920F920FB602
:100E60000F9211242F933F938F939F93AF93BF9330
:100E700080919C0390919D03A0919E03B0919F034C
:100E800030919B0323E0230F2D3720F40196A11D01
:100E9000B11D05C026E8230F0296A11DB11D2093A8
:100EA0009B0380939C0390939D03A0939E03B09318
:100EB0009F038091A0039091A103A091A203B09100
:100EC000A3030196A11DB11D8093A0039093A103DC
:100ED000A093A203B093A303BF91AF919F918F9171
:100EE0003F912F910F900FBE0F901F901895CF93A9
:100EF000DF93CDB7DEB7A9970FB6F894DEBF0FBE6C
:100F0000CDBF789484B5826084BD84B5816084BD92
:100F100085B5826085BD85B5816085BD80916E0097
:100F2000816080936E0010928100809181008260C8
:100F30008093810080918100816080938100809105
:100F400080008160809380008091B10084608093F4
:100F5000B1008091B00081608093B00080917A00F0
:100F6000846080937A0080917A00826080937A0016
:100F700080917A00816080937A0080917A00806805
:100F800080937A001092C100E091D602F091D702CE
:100F900082E08083E091D202F091D3021082E0914E
:100FA000D402F091D50280E180831092DE02E091BC
:100FB000DA02F091DB0286E08083E091D802F091C2
:100FC000D902808180618083E091D802F091D902BA
:100FD000808188608083E091D802F091D90280817D
:100FE00080688083E091D802F091D90280818F7D62
:100FF00080838EE391E00E946505809194038C309C
:1010000008F068C0E3E9F0E02491EFE7F0E08491B4
:10101000882399F090E0880F991FFC01E859FF4F51
:10102000A591B491FC01EE58FF4F859194918FB733
:10103000F894EC91E22BEC938FBF80919403E82F0E
:10104000F0E09F01220F331FE20FF31FED59FC4F19
:101050009081907C936090831092950310929603F8
:101060006CE00E94200C9CE0899FB001112440E0BC
:1010700050E09B01240F351FF901EE0FFF1F2E0FCB
:101080003F1FF901ED59FC4F908196FD16C04F5F4F
:101090005F4F4C30510569F781110FC010928000ED
:1010A00082E0809381001092850010928400B19AB2
:1010B00080916F00826080936F00E0919403F0E074
:1010C000CF01880F991FE80FF91FED59FC4F808160
:1010D0008064808380E090E00E94E10410928C02A2
:1010E00010928B0210928E0210928D021092940236
:1010F00081E0809396021092950261E082E10E9465
:10110000A60661E083E10E94A6068091B9008E7F69
:101110008093B9008091B9008D7F8093B90088E4F5
:101120008093B80085E48093BC0088EF93E09093AF
:10113000900280938F0289EF93E0909392028093C4
:10114000910210928D0380919103823018F098E003
:1011500090938D0390919203992339F0813029F473
:1011600080918D03846080938D0362E370E080E062
:1011700090E00E94F3066091930388E893E00E9458
:10118000FC0168EE73E080E090E00E94F30660E30B
:1011900088E893E00E9460020BE416E4C80101971E
:1011A000F1F760E388E893E00E946002C8010197CC
:1011B000F1F760E388E893E00E94600283E592E043
:1011C0000197F1F760E288E893E00E946002609185
:1011D0008D03606240E088E893E00E94E80284E0CA
:1011E00080938E0340E06CE088E893E00E94E80280
:1011F0000E94D60482E080938F0340E066E088E896
:1012000093E00E94E80240E062E088E893E00E94F8
:10121000E8028BE39FE10197F1F70E94D60461E0B9
:1012200081E00E94A7046EE371E088E893E00E94E9
:101230008E0263E081E00E94A70461E571E088E826
:1012400093E00E948E0260ED77E080E090E00E94E3
:10125000F30684E0282E312CAA24A394B12C2AE092
:10126000422E512C612C712C86EC92E00E94E200FF
:10127000181619060CF089C086EC92E00E94E20074
:10128000019739F486EC92E00E94C00080936902D5
:101290007CC086EC92E00E94E2004C011BA21AA2E4
:1012A0001DA21CA21FA21EA260E070E0CE018296C9
:1012B0000E94AB01811107C0CE0182960E94970166
:1012C000E12CF12C43C01FA21EA266EC71E08AA1A2
:1012D0009BA10E94270EF4CF86EC92E00E94C000F2
:1012E000182F1A8219821C821B821E821D82BE0147
:1012F0006E5D7F4FCE0101960E94D20118A719A6FC
:101300000D811E810F5F1F4FB801CE0101960E9413
:10131000AB018823F9F029813A818D819E81BE013C
:10132000685D7F4F820F931F0E94270E1E830D83DF
:10133000BE016F5F7F4FCE0182960E94D2018981EC
:101340009A810E94CA0CEFEFEE1AFE0AE814F90423
:101350001CF205C0CE0101960E949701E9CF0AA1B7
:101360001BA10115110521F0C8010E944A0B03C001
:1013700060E070E0CB01709368026093670281E0E7
:1013800080936602C8010E94CA0C809199039091D3
:101390009A038230910509F49AC02CF4009759F011
:1013A000019791F1E4C08330910509F4B1C004972D
:1013B00009F4C5C0DCC00E94D60466E571E088E887
:1013C00093E00E948E0263E080E00E94A70460E741
:1013D00071E088E893E00E948E028091690287356F
:1013E00039F4B0929A03A092990380E991E08DC0FC
:1013F000843409F0BCC082E090E090939A0380931B
:10140000990381EA91E081C080916602882309F402
:1014100052C064EB71E086EC92E00E948E02209153
:101420006702309168026901330FEE08FF08F7FE8A
:1014300020C06DE286EC92E00E941A012227332739
:10144000A9012C193D094E095F0919A28E010F5DF2
:101450001F4FCA01B901A30192010E94EF0B605D09
:10146000F80162938F01211531054105510589F776
:1014700015C0A701960119A28E010F5D1F4FCA0169
:10148000B901A30192010E94EF0B605DF801629324
:101490008F01211531054105510589F7B80186EC09
:1014A00092E00E94790264EC71E086EC92E00E9486
:1014B00079021092660280916902813509F057C065
:1014C00010929A031092990387EC91E01EC00E943B
:1014D000D60467ED71E088E893E00E948E0263E035
:1014E00080E00E94A70463EE71E088E893E00E9428
:1014F0008E02809169028335D1F583E090E090936C
:101500009A038093990389E092E00E9465052FC0B9
:101510000E94D60468E172E088E893E00E948E029F
:1015200080916902863419F530929A0320929903CA
:1015300085E392E00E9465058AE590E016C00E946E
:10154000D60463E472E088E893E00E948E02809102
:101550006902823561F410929A031092990387EC24
:1015600091E00E94650580E090E00E94E1040E9405
:1015700089017ACE1092BD021092BC0288EE93E0EF
:10158000A0E0B0E08093BE029093BF02A093C0029F
:10159000B093C10222E131E03093BB022093BA0242
:1015A0001092C9021092C8028093CA029093CB0293
:1015B000A093CC02B093CD0284E291E09093C70255
:1015C0008093C60285EC90E09093D3028093D20280
:1015D00084EC90E09093D5028093D40280EC90E06C
:1015E0009093D7028093D60281EC90E09093D90239
:1015F0008093D80282EC90E09093DB028093DA0231
:1016000086EC90E09093DD028093DC021092DF0282
:101610001092E0021092E1021092E20210929803FE
:101620001092970310929A03109299038091870366
:101630008C30A0F491E0980F9093870380939403EB
:1016400090E0FC01EE0FFF1F8E0F9F1FFC01ED5974
:10165000FC4F88EB9BE09283818303C08FEF8093E4
:10166000940310928B0310928A0386E391E0909387
:101670008903809388038FE380938C0384E18093B4
:10168000900384E0809391031092920388E080930A
:10169000930308951F93FC0199278827BC01E894C0
:1016A00011911032E9F3193010F01E30C8F31B32DB
:1016B00051F01D3249F4689406C00E94710B610F0D
:1016C000711D811D911D119110531A30B0F33EF41C
:1016D00090958095709561957F4F8F4F9F4F1F918B
:1016E0000895592F482F372F262F660F771F881FF1
:1016F000991F660F771F881F991F620F731F841F22
:10170000951F660F771F881F991F0895052E97FB59
:101710001EF400940E949D0B57FD07D00E94EF0B12
:1017200007FC03D04EF40C949D0B509540953095DA
:1017300021953F4F4F4F5F4F08959095809570953D
:1017400061957F4F8F4F9F4F08950E94110CA59F69
:10175000900DB49F900DA49F800D911D11240895AC
:10176000B7FF0C94A50B0E94A50B821B930B089549
:101770002F923F924F925F926F927F928F929F92A1
:10178000AF92BF92CF92DF92EF92FF920F931F938F
:10179000CF93DF93CDB7DEB7CA1BDB0B0FB6F89440
:1017A000DEBF0FBECDBF09942A88398848885F8480
:1017B0006E847D848C849B84AA84B984C884DF80F1
:1017C000EE80FD800C811B81AA81B981CE0FD11DD5
:1017D0000FB6F894DEBF0FBECDBFED010895A1E2B4
:1017E0001A2EAA1BBB1BFD010DC0AA1FBB1FEE1F9B
:1017F000FF1FA217B307E407F50720F0A21BB30BE6
:10180000E40BF50B661F771F881F991F1A9469F761
:1018100060957095809590959B01AC01BD01CF01BD
:101820000895A29FB001B39FC001A39F700D811DB9
:101830001124911DB29F700D811D1124911D0895D9
:10184000991B79E004C0991F961708F0961B881F12
:101850007A95C9F780950895EE0FFF1F0590F491D2
:10186000E02D09940F931F93CF93DF93823091055E
:1018700010F482E090E0E0910904F0910A0420E085
:1018800030E0A0E0B0E0309719F140815181028151
:10189000138148175907C8F08417950769F4109702
:1018A00031F012960C93129713961C9327C0009355
:1018B000090410930A0422C02115310519F04217BA
:1018C000530718F49A01BD01EF01DF01F801DBCFE6
:1018D00021153105F9F0281B390B2430310580F42E
:1018E0008A819B816115710521F0FB0193838283BD
:1018F00004C090930A0480930904FE01329644C008
:10190000FE01E20FF31F8193919322503109398335
:1019100028833AC02091070430910804232B41F416
:1019200020910201309103013093080420930704B1
:1019300020910001309101012115310541F42DB7AD
:101940003EB74091040150910501241B350BE091F5
:101950000704F0910804E217F307A0F42E1B3F0BD5
:101960002817390778F0AC014E5F5F4F2417350711
:1019700048F04E0F5F1F5093080440930704819373
:10198000919302C0E0E0F0E0CF01DF91CF911F9191
:101990000F910895CF93DF93009709F481C0FC0164
:1019A000329713821282A0910904B0910A04109711
:1019B00081F420813181820F931F2091070430919F
:1019C00008042817390751F5F0930804E093070439
:1019D00067C0ED0120E030E0CE17DF0740F44A8118
:1019E0005B819E0141155105F1F0EA01F5CFD383EA
:1019F000C28340815181840F951FC817D90759F4BC
:101A000088819981840F951F0296918380838A81B2
:101A10009B81938382832115310529F4F0930A0475
:101A2000E09309043DC0E901FB83EA8349915991A0
:101A3000C40FD51FEC17FD0761F480819181840FDD
:101A4000951F0296E90199838883828193819B8304
:101A50008A83E0E0F0E012968D919C9113970097B5
:101A600019F0FD01DC01F7CF8D919C9111979D013B
:101A70002E5F3F4F820F931F20910704309108047F
:101A80002817390769F4309729F410920A04109244
:101A9000090402C013821282B0930804A0930704C1
:101AA000DF91CF910895A0E0B0E0E9E5FDE00C946E
:101AB000BC0BEC01009721F4CB010E94320CB4C0A6
:101AC000FC01E60FF71F9C0122503109E217F307D2
:101AD00008F4A8C0D9010D911C911197061717079A
:101AE000B0F00530110508F49BC0C80104978617B3
:101AF000970708F495C002501109061B170B0193B4
:101B000011936D937C93CF010E94CA0C89C05B0135
:101B1000A01AB10A4C01800E911EA0910904B09147
:101B20000A04612C712CE12CF12C109709F446C0A9
:101B30008D919C911197A815B905B1F56C0142E002
:101B4000C40ED11CCA14DB0478F14C018A189B081E
:101B5000640142E0C40ED11C1296BC9012971396F9
:101B6000AC91B5E0CB16D10440F0B282A383918250
:101B70008082D9016D937C9309C00E5F1F4F800F47
:101B8000911FF90191838083EB2DFA2FE114F10469
:101B900031F0D7011396FC93EE93129741C0F09366
:101BA0000A04E09309043CC06816790608F43C0175
:101BB0007D0112960D90BC91A02DB7CF80910704A6
:101BC0009091080488169906E1F466167706C8F421
:101BD0008091000190910101009741F48DB79EB76B
:101BE0004091040150910501841B950BE817F907FA
:101BF000C8F4F0930804E0930704F901718360834B
:101C00000FC0CB010E94320C7C01009759F0A80153
:101C1000BE010E941E0ECE010E94CA0CC70104C064
:101C2000CE0102C080E090E0CDB7DEB7EEE00C94CC
:101C3000D80B81E090E0F8940C942E0EFB01DC01AF
:101C400002C001900D9241505040D8F70895FB0119
:101C5000DC0101900D920020E1F70895F894FFCF88
:101C600000000B042000000040001400540000009D
:101C70000000530426049401FA031E040A04FB0323
:101C8000000000001A018700B1006701E200C000F7
:101C9000D40000000000FF028700940193015379F3
:101CA0007374656D20696E697469616C697A6564C5
:101CB0000056302E310050726573696F6E65204496
:101CC00020706172612064697370656E7361720067
:101CD00050726573696F6E65205720706172612064
:101CE00063616D62696172206772616D616A65002E
:101CF00053746174653A3D205345544752414D53E6
:101D00000053746174653A3D2044495350454E5325
:101D1000494E47005765696768742073657420747D
:101D20006F3D20000D0A0053746174653A3D2053E5
:101D300054414E4442590044697370656E73616E3C
:101D4000646F0050726573696F6E65205320706117
:101D50007261207465726D696E61722064652064C1
:101D6000697370656E7361720053746174653A3D96
:101D7000205345525645440050726573696F6E6535
:101D800020462070617261207661636961722074FF
:101D90006F6C76610053746174653A3D20464C5512
:101DA00053480050726573696F6E652052207061F0
:101DB0007261207465726D696E617220766163690B
:041DC00061646F00EB
:00000001FF
